:020000040800F2
:10000000D8290020D1020008D9020008F303000813
:10001000DD020008DF020008E10200080000000025
:10002000000000000000000000000000E3020008E3
:10003000E5020008000000003F03000831610008ED
:10004000EB020008EB020008EB020008EB020008DC
:10005000EB020008EB020008832A0008D12A0008FE
:10006000E32A0008F52A0008072B0008EB02000825
:10007000EB020008EB020008EB020008EB020008AC
:10008000EB020008EB020008EB020008EB0200089C
:10009000EB020008EB020008EB020008192B000835
:1000A000EB020008EB020008EB020008EB0200087C
:1000B000EB020008EB020008EB020008EB0200086C
:1000C000EB020008EB020008EB020008EB0200085C
:1000D000EB020008656800087D6800089568000864
:1000E000952A0008EB020008EB020008EB0200086A
:1000F000EB020008EB020008EB020008EB0200082C
:10010000EB020008EB020008EB020008EB0200081B
:10011000EB02000885620008EB020008EB02000811
:10012000EB020008EB020008EB020008EB020008FB
:10013000EB020008EB020008EB020008EB020008EB
:10014000EB020008EB020008EB020008EB020008DB
:10015000EB020008EB020008EB020008AD680008A3
:10016000EB020008EB020008EB020008EB020008BB
:10017000EB020008EB020008EB02000800000000A0
:10018000EB020008EB020008EB020008EB0200089B
:10019000EB020008EB020008EB020008EB0200088B
:1001A000EB020008EB020008EB02000800F002F886
:1001B00000F076F80AA090E8000C82448344AAF18B
:1001C0000107DA4501D100F06BF8AFF2090EBAE889
:1001D0000F0013F0010F18BFFB1A43F0010318477B
:1001E00054030200740302000A444FF0000C10F89C
:1001F000013B13F0070408BF10F8014B1D1108BFA5
:1002000010F8015B641E05D010F8016B641E01F844
:10021000016BF9D113F0080F1EBF10F8014BAD1C94
:100220000C1B09D16D1E58BF01F801CBFAD505E0B2
:1002300014F8016B01F8016B6D1EF9D59142D6D30C
:10024000704700000023002400250026103A28BF34
:1002500078C1FBD8520728BF30C148BF0B60704738
:1002600066291DF0C083732900F0F38600207047D3
:100270001FB51DF0AEFB00F0D1FF040000200021EF
:100280001CF0E6FD401C6060002000211CF0CAFD4F
:10029000E06000F01BFF1FBD10B500F080FF10BD37
:1002A00001F0EBFA1146FFF7E3FF02F085F801F0E9
:1002B00027FC03B4FFF7F0FF03BC07F0CBF9000005
:1002C000002804D090FAA0F0B0FA80F0401C7047EB
:1002D0000948804709480047FEE7FEE7FEE7FEE7DA
:1002E000FEE7FEE7FEE7FEE7FEE7FEE70448054916
:1002F000054A064B7047000021620008AD01000866
:10030000D8230020D8290020D8250020D825002077
:10031000EFF3108072B6704780F310887047434A3D
:100320001368012B04D04FF001031360404A1060A2
:10033000404A116040484FF0805101607047EFF330
:10034000108272B63948016851B34FF00001016064
:100350003748016891B1EFF309811EF0100F08BF13
:1003600021ED108B21E9F00F4FF000041EF0100F6B
:1003700008BF012441F8044D006801602D49096857
:10038000096808C9B1E8F00F002B18BFB1EC108B59
:1003900081F309884EF0100E002B18BF2EF0100EBE
:1003A00082F310884EF0040E704722490860EFF384
:1003B000148222F0040282F314881D494FF00000D9
:1003C00008601A494FF0010008601C484FF47F0193
:1003D000D0F8002041EA0201016017484FF0805137
:1003E000016017480068006880F3088861B662B64B
:1003F00070471EF0040F0CBFEFF30880EFF3098085
:1004000020E9F00F40F804ED40F804ED1EF0040F71
:100410000CBF80F3088880F3098800B515F050F907
:100420005DF804EB4EF0040E704700007C020020E3
:10043000740200207802002004ED00E020ED00E0CE
:1004400008ED00E070477047704753EA020C00F077
:1004500069802DE9F04B4FF00006002B1FBFB3FA67
:1004600083F503FA05F424FA05F65E4012BF16433D
:10047000B2FA82F502FA05F4C5F120051EBF22FA90
:1004800005FC44EA0C04203556EA044C4FEA1444B7
:1004900018BF641C4FF000084FF00009904271EB48
:1004A000030C39D3002919BFB1FA81F701FA07F615
:1004B000B0FA80F700FA07F6C7F120071EBF20FA4E
:1004C00007FC46EA0C062037B6FBF4FCA7EB050751
:1004D000103F07F01F0BCBF120060CFA0BFB2CFA98
:1004E00006F644BFB3460026202FA4BF5E464FF059
:1004F000000B5BEA060C08BF4FF0010B19EB0B0970
:10050000ABFB027C48EB0608C01B06FB02CC0BFBD6
:1005100003CC71EB0C01C1E70B460246414648464D
:10052000BDE8F08B13B54FF000004FF00001AFF3C2
:100530000080BDE81C40704710B54C1084EA53049D
:1005400004D54042C1F1000138BF491E1B4204D509
:100550005242C3F1000338BF5B1EFFF776FF14F071
:10056000804F04D04042C1F1000138BF491E14F051
:10057000004F04D05242C3F1000338BF5B1E10BDD0
:100580000FB41CB5074B06AA7B446946009005983A
:1005900000F02DFD0020694600F03CFD1CBC5DF81C
:1005A00014FB0000890A00000FB41CB50C0007AA58
:1005B000009001D02044401E074B7B4469460190C7
:1005C000069800F014FD002C03D06946002000F0CE
:1005D00021FD1CBC5DF814FB610A000070B50C46DF
:1005E0000546012A05D02878800600D5EA6900234F
:1005F00002E0012305E05B1C934202D2E05C00288C
:10060000F9D1A869E618C01AA861286A18442862B6
:100610002846AFF3008004E0D5E9012114F8010B6E
:100620009047B442F8D32846AFF3008070BD000075
:100630002DE9F05F894604464FF0000ADFF824B147
:10064000FB44C0F820A02046E168884700287DD000
:10065000252806D0D4E901219047206A401C206259
:10066000F1E700255F462046E168884720280646D6
:1006700007DB312E05D2B81910F8200C08B105435C
:10068000F1E7A80701D525F00405C4F81CA0002750
:10069000C4F818A02A2E09D0304606F0E1F938B384
:1006A00004EB8708303EC8F8186019E059F8041BBD
:1006B000204604EB87029161E1688847012F0646D6
:1006C00018D1E069002820DA25F020051DE0D8F8CF
:1006D000180000EB800006EB40003038C8F8180026
:1006E0002046E1688847064606F0BAF90028EED1B0
:1006F000012F0AD02E2E08D12046E16888477F1CA2
:100700000646022F45F02005C4DBA069002803DA65
:10071000404245F00105A061E80701D025F0100531
:10072000A6B1A6F14100192802D8203645F400658B
:100730004A463146204625604D46FFF791FD60B19F
:10074000012807D0ED1D25F0070000E007E000F1CB
:10075000080978E705F1040975E730467AE7206A69
:10076000BDE8F09F24F0010070B5064600F026FABF
:100770000468054630460A22002100F06EFC2C6019
:1007800070BD0DF065B930B505460B462A4613F825
:10079000014B12F8010B08B1A042F8D01CB100289F
:1007A00002D06D1CF1E7284630BD40EA010310B5C8
:1007B0009B070FD1042A0DD310C808C9121F9C42F1
:1007C000F8D020BA19BA884201D9012010BD4FF0E3
:1007D000FF3010BD1AB1D30703D0521C07E0002030
:1007E00010BD10F8013B11F8014B1B1B07D110F88D
:1007F000013B11F8014B1B1B01D1921EF1D1184690
:1008000010BD40EA0103024630B59B0710D14FF0FE
:10081000013400E008C208C91D1B9D4315EAC41F2E
:10082000F8D013F0FF0102F8011B0DD01B0AF8E706
:1008300011F8013B002B02F8013B05D011F8013BF8
:10084000002B02F8013BF3D130BD0022CBB210F8EF
:10085000011B994200D1421E0029F8D11046704771
:1008600010B5431C02E010F8011B71B18107FAD1E9
:100870004FF0013202C88C1A8C4314EAC211F9D02D
:10088000C01A0A0603D0C01E10BDC01A10BD0A044B
:1008900001D0801E10BD0902FCD0401E10BD40EAF0
:1008A000010370B59B072ED14FF00136042A2AD3DD
:1008B00008C810C99D1B9D43121F15EAC61517D005
:1008C000D8B2E1B2401A50EA056110D198B2A1B293
:1008D000401A50EA05410AD123F07F4024F07F41BD
:1008E000401A50EA052102D1180EA0EB146070BD29
:1008F000A342DBD018BA21BA884201D9012070BDC9
:100900004FF0FF3070BD0AB9002070BD10F8013BF8
:1009100011F8014B63B1A3420AD1521E08D010F85E
:10092000013B11F8014B1BB1A34201D1521EEDD185
:10093000181B70BD421E12F8013F002BFBD111F8AD
:10094000013B002B02F8013BF9D17047032A40F22A
:10095000308010F0030C00F0158011F8013BBCF161
:10096000020F624498BF11F801CB00F8013B38BF79
:1009700011F8013BA2F1040298BF00F801CB38BF87
:1009800000F8013B11F0030300F02580083AC0F0A5
:10099000088051F8043B083A51F804CBA0E808104D
:1009A000F5E7121D5CBF51F8043B40F8043BAFF380
:1009B0000080D20724BF11F8013B11F801CB48BFDA
:1009C00011F8012B24BF00F8013B00F801CB48BF10
:1009D00000F8012B704710B5203AC0F00B80B1E849
:1009E0001850203AA0E81850B1E81850A0E8185064
:1009F000BFF4F5AF5FEA027C24BFB1E81850A0E86D
:100A0000185044BF18C918C0BDE810405FEA827C86
:100A100024BF51F8043B40F8043B08BF7047D2079D
:100A200028BF31F8023B48BF11F8012B28BF20F83E
:100A3000023B48BF00F8012B704702F0FF0343EA76
:100A4000032242EA024200F002B84FF000020429F9
:100A5000C0F0128010F0030C00F01B80CCF1040CED
:100A6000BCF1020F18BF00F8012BA8BF20F8022B21
:100A7000A1EB0C0100F00DB85FEAC17C24BF00F8C7
:100A8000012B00F8012B48BF00F8012B70474FF0F5
:100A9000000200B5134694469646203922BFA0E8CE
:100AA0000C50A0E80C50B1F12001BFF4F7AF0907DA
:100AB00028BFA0E80C5048BF0CC05DF804EB8900CB
:100AC00028BF40F8042B08BF704748BF20F8022B0E
:100AD00011F0804F18BF00F8012B704710B5044685
:100AE00010F0030F08BF11F0030F40F015804FF016
:100AF000013E121FC0F20E8051F8043BA3EB0E0C16
:100B00002CEA030C1CEACE1C08BF40F8043BF0D0D2
:100B1000A1F1040102F10402521E08DB11F8013BAD
:100B2000002B00F8013BF7D11146FFF78EFF20465E
:100B300010BD00004FF0013C50F8042B51F8043B6D
:100B40009A4221D1A2EB0C03934313EACC1317D1A1
:100B500050F8042B51F8043B9A4215D1A2EB0C0338
:100B6000934313EACC130BD150F8042B51F8043BF8
:100B70009A4209D1A2EB0C03934313EACC13DBD0C6
:100B80004FF00000704700BFD01A01BAB1FA81F1EE
:100B900001F0180122FA01F0CB40C1F12001DBB2D3
:100BA000C0B2C01A2CFA01F3D11A914311EAC31151
:100BB000E6D17047704770477047000000487047A3
:100BC0007823002070472DE9FF4F0C461E464FF05A
:100BD000FF378BB0D2E90001DDF860800A908A46C9
:100BE000C1F30A5505B93D46002108464FF0000003
:100BF000BAF1000F00F4400005DA00EB80004FF47A
:100C0000400101EA50004FEA9059B9F1010F00DDAF
:100C1000B9460A9850EA4A000ED044F61050A5F2A0
:100C2000FF3545432F14B8F1000F1ED07542291E21
:100C30001EDDC9F100021CE0B8F1010F4FF0000009
:100C400001D0302103E0F24305E02154401CB042C2
:100C5000FBDB30460022002121540B99C1F80880AB
:100C6000C1E900200FB0BDE8F08FBD1B6D1CDEE7B1
:100C70004A4600DA694206A800F0AAFB06AB93E8F0
:100C8000070003AB83E8070050460A9900F0CCFF49
:100C90008DE80700A0F500501F3800900398002D44
:100CA0000ADD42F21F014A460844002303A90390CB
:100CB000684601F035FA09E0A0F500504A461F38B1
:100CC000002303A90390684601F03FFA8DE807006E
:100CD0000004000C03D04FF0FF30410800E0104644
:100CE000B8F1000F03D00022009215461EE0751ED9
:100CF00005D400F097FA303262556D1EF9D5B3462F
:100D00000122084302D000227F1C04E02078302812
:100D100001D100227F1E002A099784D01DE0112DE9
:100D200007DA00F07FFA303262556D1C50EA01029A
:100D3000F5D1084302D00098C8B10EE00021681E2A
:100D400005E0235C625C63542254401E491C8142CE
:100D5000F7DBAB46A81B401E0990002004F80B00EF
:100D60000B98099AC0F80880C0E9002B7AE7112691
:100D70004FF0000857E72DE9F04F88460446D21D92
:100D800022F0070191B0D1E90001CDE90A0105F097
:100D9000E9FD02460B98C00F01D02D2007E0206826
:100DA000810701D52B2002E0202101EAC000032A9F
:100DB000099001D0072A05DB03464146204600F092
:100DC00077FA0BE12078800601D5E06900E0062083
:100DD000B8F1650F814606D0B8F1660F18D0B8F1AA
:100DE000670F70D131E00020B9F1110F009001DBE5
:100DF000112301E009F101030AAA01A90CA8FFF7D8
:100E0000E2FEDDE90C70002609F10105834647E0AA
:100E100001204B4600904FF000470AAA01A90CA8F8
:100E2000FFF7D1FEDDE90DB00C995D46002610B943
:100E300009F101000D18B9EB050003D4C0F1FF362C
:100E400009F10105A5EB09002BE0B9F1010F01DA69
:100E50004FF001090020B9F1110F0090484601DD63
:100E6000112300E003460AAA01A90CA8FFF7ABFE74
:100E7000DDE90C704D4600268346207800070AD431
:100E8000AB4500DA5D4601A8012D04DD411911F8DA
:100E9000011C302907D04F4502DA17F1040F04DA9C
:100EA000012082460FE06D1EEEE7002F02DCED1BF5
:100EB0003E4403E0781CA84200DD7D1CB81B00F115
:100EC000010A4FF000472078000703D4AA4501DB50
:100ED0004FF0FF3A0021B7F1004F0DF143088DF8B4
:100EE000431024D002202B23002F01DA7F422D2330
:100EF0000A21021EA0F1010000DC5FB197FBF1FCAA
:100F000097FBF1F201FB1C7C17460CF1300C08F842
:100F100001CDEEE7A8F1010003702188090501D594
:100F2000452100E06521A0F1010800F8011C0998A5
:100F30000FA9A1EB0807FF1D00B10120411901EB2A
:100F4000EA70A1693844081A401EA0612078C006E2
:100F500002D42046AFF30080099828B1D4E90121DA
:100F60009047206A401C20622078C00622D5204687
:100F7000AFF300801EE0002E04DBB34502DD01A8C4
:100F8000805D00E03020D4E901219047206A401CB8
:100F90002062761CAAF101005FEA000A0AD100F083
:100FA0003DF9C0680168405CD4E901219047206A9E
:100FB000401C2062281EA5F10105DCDC07E0D4E915
:100FC000012118F8010B9047206A401C2062381E4E
:100FD000A7F10107F3DC2046AFF30080032011B036
:100FE00041E6000001694A1C02610878704700B5BB
:100FF0008FB0CDE901310021059105497944CDE952
:10100000031011466846FFF713FB0FB000BD000048
:10101000E5FFFFFF0A6802F8010B0A607047D1E99B
:1010200000239A4202D2531C0B601070704710B517
:10103000436913B1AFF3008001E0FFF7CFFA01205D
:1010400010BD127800F124010A7000224A700122BA
:10105000EDE711684FF0FF32E9E72DE9F0479146DF
:101060000F4680460446002614F8015B2DB100F0BF
:10107000CDF80068405DC007F6D12B2D02D02D2D94
:1010800018D0641E4A463946204600F051F927B16F
:101090003968A14201D1C7F800804FF00204710500
:1010A0000BD54042002803DDFFF788FD0460A00750
:1010B000BDE8F08746F48066E4E70028F8DAFFF739
:1010C0007DFD04606FF00040F2E7000010B542487B
:1010D0005421FFF7DCFC41485421FFF7D8FC40487D
:1010E0005421FFF7D4FC3F493B483C4A3F4B086042
:1010F0003D490A603A491960531C0365481C106554
:10110000012008653B48344A39A1784400F012FBBD
:1011100020B9384878440A3800F0A8FB37482F4AED
:1011200035A1784400F006FB20B9344878440A38E9
:1011300000F09CFB32482A4A2FA1784400F0FAFACA
:1011400020B92F4878440A3800F090FB4023224809
:10115000DC000021224600F0CAFA20B1254878447C
:10116000543800F083FB1D4822464023002100F044
:10117000BEFA20B121487844543800F077FB184873
:1011800022461023002100F0B2FA002806D01C48A5
:101190007844BDE81040563800F068BB10BD1048D8
:1011A00070B5006D20F001040B4800F039FB0B48CE
:1011B00000F036FB0A4800F033FB09E0206D20F018
:1011C0000105204600F02CFB20460FF0BAF92C4612
:1011D000002CF3D170BD00007C220020D022002022
:1011E000242300204005002044050020480500205D
:1011F00072000000DEE3010077000000CCE3010094
:10120000BBE30100004870477823002010B500F0D0
:1012100005F8001D10BD00BF39BC01000048704733
:101220009823002030B5B0F10A024FEA900E71F118
:1012300000034EEA817EB0EB0E0061EB91014FEAB4
:10124000101E4EEA017E10EB0E0041EB11114FEA29
:10125000102E4EEA016E10EB0E0041EB11214FEA09
:10126000104E4EEA014E10EB0E0041EB11414018BA
:1012700041F100014FEAD00040EA41704FEAD1014C
:1012800010EB80054FEA810444EA907444EB0104BA
:101290006D1944EB0404521BA3414FF0000348BFF7
:1012A0000A3200D530BD401C41F1000130BD0000C4
:1012B0002DE9F0411F46044603260168072A01F480
:1012C000006004DB08B116A505E016A503E008B12F
:1012D00015A500E015A521F010002060A069C01E32
:1012E000A0610FB1401EA0612046AFF300804FB156
:1012F000D4E9012138469047206A401C2062C01C76
:10130000206206E0206AFAE7D4E9012115F8010B12
:101310009047761EF8D22046AFF30080BDE8F081FA
:101320004E414E006E616E00494E4600696E660089
:101330002DE9F05F824615468B4600270AF101042D
:10134000B9460078302801D09DB113E014F8010BA4
:101350000127782803D0582801D045B10AE00DB103
:10136000102D07D1002714F8010B102502E00825E5
:1013700000E00A250026B0460EE005FB080005FB4C
:1013800006F101271FFA80F801EB1046B6F5803F01
:1013900000D3B94614F8010B294600F093FA00284F
:1013A000EBDABBF1000F05D00FB1641E00E054462C
:1013B000CBF80040B9F1000F06D0FFF7FFFB022188
:1013C0000160C81EBDE8F09F48EA0640FAE7000049
:1013D0002DE9F047814616468AB0354878440DC855
:1013E0008DE80D0032487844801C03AC0DC884E8B9
:1013F0000D0041F69B300844372190FBF1F290FB41
:10140000F1F5A5F1800501FB12041B3C02D56442F5
:10141000012000E00020DFF898A080460027FA4471
:10142000AAF1BE0A0EE0E0070AD03246684607EB92
:10143000470101230AEB810100F087FE8DE80700D8
:1014400064107F1C002CEED1194F7F44AE3F19E091
:10145000E80715D007EB04100DF1180A90E80E000C
:101460008AE80E00C068F04201D19819089032460F
:10147000012306A903A800F068FE03AB83E8070078
:101480006D10641C002DE3D14FF001033246694614
:10149000B8F1000F03A802D000F042FE01E000F016
:1014A00054FEC9E90001C9F808200AB0BDE8F08778
:1014B00018E3010070B50D4601461446D368506923
:1014C0002A4606F031F9002807DA411C07D0E16806
:1014D00020F0004041F48041E160281A70BD2046B0
:1014E00000F07AFA4FF0FF3070BDC1680022026050
:1014F00021F4805141F0400111F4C06FC16001D06E
:101500008260704702694168891AC269891A8160DC
:1015100070472DE9F0470446C06840F48000E06061
:10152000010312D520F40020E060810606D4E26AAF
:1015300061688A4200D80A46511A216040F40010BE
:10154000E06094F82500BDE8F08720F40010E0602A
:10155000800602D5204600F096FAE06842F281014A
:101560004FF0FF390140012903D0204600F034FA42
:10157000B6E02168002600290ADAC94340F4805009
:101580002160C4E902606068411C61600078DAE7AC
:1015900044F2400108420CD020F4A04040F040004A
:1015A0002660E06021696068401AE169401AA06025
:1015B00096E0216991B9C00310D4E06910F05AFF98
:1015C0002061B0B1E06840F4006010F4407FE0605A
:1015D00002D140F48070E06020696060E068D4F877
:1015E00014A0C1061AD5C0030ED5204600F028FA73
:1015F00014E004F1240020610120E061E06820F49F
:10160000407040F48060E6E721696068401AA16993
:101610000144504606F0ABF80028A6DBE068C003A2
:101620002AD56168E06A884200D808462169451ACF
:10163000E069471B1BD02046D4F8188000F000FA60
:1016400008EB05015046C4F8188006F090F8002811
:101650008BDBE06840F40030E060000202D5A06956
:101660002844A061E1692069C91B45180DE02046A6
:1016700000F0E6F9E769F5E725696168D4E906074E
:10168000491BE56208446560A061E06820F0100035
:1016900010F4C06FE06002D0204600F015FAE06858
:1016A00040F48050C4E90260000205D52069E06280
:1016B00060606FF0010046E7224639462846FFF792
:1016C000F9FE411C0CD02918E16258B1401E20607F
:1016D000681C6060E06840F40030E060287832E721
:1016E000484630E765602046FFF7FFFEF8E770B533
:1016F000C468A50713D0650211D4B2F5807F09D064
:10170000B2F5007F06D0B2F5806F08D1012300F159
:10171000240106E05D1E6FF07F46B54201D3012033
:1017200070BD0161C361416024F470611143C16007
:10173000002070BD2DE9F0410C46074616461046C4
:1017400000F06EF82078611C61280AD0722802D05F
:1017500077283CD102E00125002405E0022504247D
:1017600002E0082448F2020511F8010B2B2806D0EC
:10177000622809D011F8010C74280AD00BE045F05A
:10178000030544F00204EFE745F0040544F00104CA
:10179000EAE744F010043846214605F075FF411C85
:1017A00015D00021316171604FF40071F560F16175
:1017B0007061200704D530460222002100F090F825
:1017C000306D40F0010030653046BDE8F08100200A
:1017D000FBE72DE9F0410D460646104C206DC10790
:1017E00004D0410804D020F00104F7E722460EE0BF
:1017F000542010F03FFE07000ED0206D47F001018D
:101800000843542120653846FFF741F93A462946F6
:101810003046BDE8F0418DE70020D6E77C2200206D
:101820002DE9F04704464FF000094FF0FF37C56837
:10183000D4E90486A80707D0204600F001F9304615
:1018400005F0FEFE002802DA3846BDE8F0872805DC
:1018500002D540460EF075FE4C212046FFF717F9E1
:10186000206D20F0010020654846EEE710B500F03D
:1018700055F9BDE8104000F04CB97546FFF7C2FCC1
:10188000AE4605006946534620F00700854618B06D
:1018900020B5FEF72BFDBDE820404FF000064FF0CD
:1018A00000074FF000084FF0000B21F00701AC4695
:1018B000ACE8C009ACE8C009ACE8C009ACE8C009B4
:1018C0008D4670473A2800D2303820F02002412A55
:1018D00001D3A2F13700884201D34FF0FF307047A7
:1018E0002DE9F041044616460D464769007B800706
:1018F0002ED0384605F0BFFE50BB3EB3012E02D0BD
:10190000022E25D104E0204600F054F905441DE0E4
:10191000384605F0A1FEE168002841F01001E160C1
:1019200005DA204600F058F80120BDE8F081C9032F
:101930000BD56268E16A914200D81146A269114450
:101940002269891A814200DD08460544002D01DA2A
:101950000220EAE7E16A6068E268814206D2910308
:10196000E06203D522F4003141F01002A66900279D
:10197000AE4213DCE16A814201D90B4600E0034626
:1019800003EB060C2369ACEB030CAC4506DD81428E
:1019900001D98C4600E084469C4505D1A7602760AC
:1019A00042F02000A5620DE0AD1BE669AE1B81424E
:1019B000A66000D90846C01A281A2060581960602D
:1019C00022F0200003490840E060002084F84870BD
:1019D000ABE70000BFCFD7FFC16821F4001141F091
:1019E0008001C16000218160016070472DE9F047EE
:1019F000814614460E464FF0FF383248D568576985
:101A0000054209D03846A16905F0B1FE002811DB76
:101A10002C48C0430540E5602B46324649463846CF
:101A200005F0B3FEA16920F00042B21A114400286B
:101A3000A16103D02046FFF7CFFF4046BDE8F08705
:101A400070B504460569C06A6168884200D80846D6
:101A5000E16821F42011E160C90312D5A84208D041
:101A60002246411B2846FFF7C1FF10B14FF0FF305F
:101A700070BD0020E562C4E90150E06820F48030C8
:101A8000E060002070BD10B50446C06820F0200062
:101A9000E060A16AA06988420DD02046FFF7D0FF20
:101AA000E06820F4405040F01000E060A06AA061BF
:101AB0002069E062606044F24001E0688843E060D1
:101AC00010BD00001000020070B5054640F202266D
:101AD0000A4C0FE094F85000C00708D0AC4206D082
:101AE000E06836EA000002D1204600F031F8206DAF
:101AF00020F00104002CEDD170BD00007C220020FC
:101B000010B50446AFF300802046BDE81040FEF754
:101B1000D0BB002801D005F09DBD704710B501462F
:101B200002A000F068F8012010BD000053494752A0
:101B3000545245443A2052656469726563743A2090
:101B400063616E2774206F70656E3A20000000009C
:101B500070B50446C068810713D0800601D5A56A18
:101B600004E0A169606808442169451A2046FFF72E
:101B700067FF0022064629462046FFF7B1FE3046A1
:101B800070BD002070BD70B510B1BDE87040DFE7DA
:101B90000025074C6E1E07E02046FFF7D9FF00B175
:101BA0003546206D20F00104002CF5D1284670BD8B
:101BB0007C22002010B50146C268900703D0900631
:101BC00007D5886A0AE0FEF7F9FF01210160881E47
:101BD00010BD8B69486818440B69C01A91F84830E9
:101BE0001BB191F84910401A10BD1103FCD5002813
:101BF000FADD401E10BD70B505460C460A2000E017
:101C00006D1C05F0E5FD35B128780028F8D102E01B
:101C1000641C05F0DDFD14B120780028F8D1BDE882
:101C200070400A2005F0D4BD5FEA400C08BF91F077
:101C3000000F4FEA8C234FEAC12243EA51514FEA89
:101C40001C5018BF00F5F0404FEA300018BF41F0BB
:101C500000415FEA6C5C00F02980BCF1FF3F08BFE7
:101C600040F080407047130C06BF12044FF0100C78
:101C70004FF0000C130E04BF12020CF1080C130FEE
:101C800004BF12010CF1040C930F04BF92000CF17D
:101C9000020CD30F04BF52000CF1010C11464FF09F
:101CA0000002A0F11F00A0EB0C00704711F0004FE4
:101CB00008BF704731F000413FF4D5AF0B0C06BFB1
:101CC00009044FF0100C4FF0000C0B0E04BF09027A
:101CD0000CF1080C0B0F04BF09010CF1040C8B0F65
:101CE00004BF89000CF1020CCB0F04BF49000CF1BA
:101CF000010CCCF12003A0EB0C0022FA03F302FA52
:101D00000CF241EA030100F10100704720F07F4C22
:101D100080EA030023F07F47ACEB070303F57C5315
:101D200000F0004003F1FF032DE980494FEA154B15
:101D300009B44FEA144325EA0B4E24EA03480FF294
:101D4000042606EB132749083E785FEA320203FBBC
:101D50000667C7F5000707FB06F64FEA54374FEA58
:101D6000D64606F1020607FB066CCCF1005C4FEA92
:101D70001C472CEA074C07FB06F40CFB06F504EBAA
:101D800015464FEA961634BF00204FF000404FEA48
:101D9000D13706FB07FC4FEA1C4C0CFB0BF7D21BA0
:101DA00003FB0CF761EB07010CFB0EF7B0EB0740F0
:101DB00072EB17420CFB08F734BFA2EB0742B2EB01
:101DC000074261EB17414FEA0C444FEA910706FBCB
:101DD00007FC4FEA1C4C0CFB0BF7B0EBC74072EB57
:101DE000573203FB0CF734BFA2EBC742B2EBC7423A
:101DF00061EB57310CFB0EF7B0EBC70072EB57727B
:101E00000CFB08F734BFA2EBC702B2EBC70261EBD1
:101E10005771039F4FEA816141EA921104EBCC04B0
:101E20004FEAD1374FEA826206FB07FC42EA901282
:101E30004FEA80604FEA1C4C0CFB0BF7D21B03FBF4
:101E40000CF761EB07010CFB0EF7B0EB074072EBF0
:101E500017420CFB08F734BFA2EB0742B2EB074274
:101E600061EB17414FEA8C554FEA910704EB9C2434
:101E700006FB07FC4FEA1C4C0CFB0BF7B0EBC74012
:101E800072EB573203FB0CF734BFA2EBC742B2EB45
:101E9000C74261EB57310CFB0EF7B0EBC70072EB9A
:101EA00057720CFB08F734BFA2EBC702B2EBC702B4
:101EB00061EB577115EB4C254FEA816141EA9211B4
:101EC0004FEA82624FEAD13742EA901206FB07FCE2
:101ED00044F100044FEA80604FEA1C4C0CFB0BF706
:101EE000D21B03FB0CF761EB07010CFB0EF7B0EB09
:101EF000074072EB17420CFB08F734BFA2EB074216
:101F0000B2EB074261EB174115EB1C154FEA81312B
:101F100041EA92414FEA823242EA90424FEA8030EF
:101F20004FEA0C7644F1000448EA03434EEA0B48BA
:101F30004FF0000EB2EB080C71EB030724BF6246B2
:101F400039464EEB0E0E4FF0000B0018524149413E
:101F50004BEB0B0BB2EB080C71EB03077BF1000BA7
:101F600024BF624639464EEB0E0E4FF0000B0018B0
:101F7000524149414BEB0B0BB2EB080C71EB0307E1
:101F80007BF1000B24BF624639464EEB0E0E51EA40
:101F9000020718BF46F0010616EB0E7655F1000257
:101FA00054F1000103D5BDE88901BDE80088BDE812
:101FB0008901BDE80048B619524141EB0101A3F186
:101FC0000103704780807F7E7D7C7B7A797877768D
:101FD00076757473727171706F6E6E6D6C6C6B6A06
:101FE0006A696868676666656464636362616160A4
:101FF000605F5F5E5E5D5D5C5C5B5B5A5A59595821
:10200000585757565655555554545353525252518A
:10201000515050504F4F4F4E4E4D4D4D4C4C4C4BE0
:102020004B4B4A4A4A494949484848474747474627
:102030004646454545444444444343434342424263
:1020400042414141002B9C4630D477002BD01CB537
:102050004FEA370703B44FF010004FF01001BAF108
:10206000000F06D0BCF1000FDCBF40F0080040F0CC
:1020700008014FF000000FBCBDE810400BF1010B50
:10208000BBF1010F08BF5FEA170722BF12F101027F
:1020900011F101014FF0004143F1000300F0004055
:1020A00043EA00007047F9D35708D0E746EA0646EE
:1020B00013F1400F4FEA16461FDD13F1200FDFBF6B
:1020C00016430A46002120335B42BED0C3F12007ED
:1020D00046EA064602FA07F74FEA164646EA0706B8
:1020E000C3F1200722FA03F201FA07F721FA03F1FC
:1020F0004FF0000342EA0702A7E746EA020646EA73
:1021000006464FEA164646EA0106BCBF46EA0646C0
:10211000360C4FF000034FF000024FF0000194E73F
:102120002DE9804C9A46934670B491E8380007C870
:1021300031EA400C48BF34EA430C03D5FFF7E6FD13
:10214000FFF780FFF0BCBDE8008C2DE9804C9A467B
:10215000934670B491E8380007C810F0804F08BF6C
:1021600013F0804F03D100F005F8FFF76BFFF0BCD0
:10217000BDE8008C20F07F4780EA030023F07F4C0D
:1021800007EB0C03A3F57C5300F00040A3F1FE0322
:1021900092F0000F00F0B38095F0000F00F0778010
:1021A0002DE901494FEA11404FEA144621EA00485F
:1021B00000FB06FC24EA064708FB06F607FB08F8C6
:1021C00000FB07F718EB06484CEB164C4FEA124B96
:1021D00018EB07484FEA15464CEB174022EA0B4E26
:1021E0000BFB06FC25EA06470EFB06F607FB0EFE78
:1021F0000BFB07F71EEB064E4CEB164C4FF00006A0
:102200001EEB074E4CEB174B18EB0B0840F1000090
:1022100018EB0E0B58EB000840F100008F1A4FF03E
:1022200000013CBFC943661B14BFB5EB040C002181
:102230003CBFC943F61B4FEA17444EEA8E0E27EA0D
:1022400004454FEA1C4704FB07622CEA074C05FBD8
:1022500007F70CFB05F604FB0CFC16EB074642EBFC
:10226000174216EB0C4642EB1C421BEB060658EBE2
:102270000202414146EA9E0601D5BDE80189B61930
:10228000524141EB0101A3F10103BDE801894FEA8D
:1022900014454FEA114724EA054621EA074C05FB9D
:1022A00007F406FB07F70CFB06F105FB0CFC11EB32
:1022B000074144EB17444FEA124711EB0C4144EB42
:1022C0001C4422EA074C05FB07F206FB07F70CFB50
:1022D00006F605FB0CFC16EB074642EB174216EB25
:1022E0000C4642EB1C456A1854F1000148BF704788
:1022F000B619524141EB0101A3F10103704795F07A
:10230000000F37D04FEA11424FEA144721EA024644
:1023100024EA074C02FB07F106FB07F70CFB06F467
:1023200002FB0CFC14EB074441EB17414FEA154745
:1023300014EB0C4441EB1C4125EA074C02FB07F56A
:1023400006FB07F70CFB06F602FB0CFC16EB074638
:1023500045EB174516EB0C4645EB1C42121951F1A3
:10236000000148BF7047B619524141EB0101A3F18A
:10237000010370474FEA14454FEA114724EA054626
:1023800021EA074C05FB07F106FB07F70CFB06F2F9
:102390004FF0000605FB0CFC12EB074241EB174126
:1023A00012EB0C4251EB1C4148BF7047921841EBB5
:1023B0000101A3F10103704710B518F05AFA00208B
:1023C00010BD00000FB410B59DF812100748426808
:1023D0000498904718B9012010BC5DF814FB03481D
:1023E000C168049888470020F6E700007C040020BC
:1023F0000FB410B5034801680498884710BC5DF815
:1024000014FB00007C0400200FB410B588B0129CAF
:1024100004200AA9CDE9044106900EA80FC88DE852
:102420000F000AA80FC800F04BF89DED0A0A08B08B
:1024300010BC5DF814FB0FB410B588B0129C0220DC
:102440000AA9CDE9044106900EA80FC88DE80F0037
:102450000AA80FC800F034F8BDF8280008B010BC76
:102460005DF814FB0FB410B588B0129C04200AA9C3
:10247000CDE9044106900EA80FC88DE80F000AA808
:102480000FC800F01DF80A9808B010BC5DF814FBE6
:102490000FB410B588B0129C01200AA9CDE90441FF
:1024A00006900EA80FC88DE80F000AA80FC800F00C
:1024B00007F89DF8280008B010BC5DF814FB000078
:1024C0000FB42DE9FC41DDE91065129C31190C981F
:1024D000801C81422BDABDF82C0004280ADACDE9F1
:1024E00000549DF82A20144833460121876A0A982F
:1024F000B8471CE0BDF82C0002280EDDBDF82C000A
:1025000020280ADACDE900549DF82A200A483346EB
:102510000321876A0A98B84709E0CDE900549DF87D
:102520002A20054833460221876A0A98B847BDE841
:10253000FC015DF814FB00007C0400200FB42DEDBD
:10254000020B10B588B0149C04200AA9CDE90441FF
:10255000069010A80FC88DE80F000CA80FC800F057
:102560004FF8052008F0C2FF08B010BC5DF81CFB56
:102570000FB410B588B0129C022013A9CDE9044114
:1025800006900EA80FC88DE80F000AA80FC800F02B
:1025900037F8052008F0AAFF08B010BC5DF814FB5E
:1025A0000FB410B588B0129C042013A9CDE90441E2
:1025B00006900EA80FC88DE80F000AA80FC800F0FB
:1025C0001FF8052008F092FF08B010BC5DF814FB5E
:1025D0000FB410B588B0129C012013A9CDE90441B5
:1025E00006900EA80FC88DE80F000AA80FC800F0CB
:1025F00007F8052008F07AFF08B010BC5DF814FB5E
:102600000FB42DE9FC47DDE91389129D05EB0901A3
:102610000E98801C814266DA0FFA89F60027BA46C6
:1026200000245DE00F9895FBF0F100FB11500FFACC
:1026300080FA0F98B04201DA0F9800E030460F9907
:10264000A1EB0A01884203DD0F98A0EB0A0005E028
:102650000F98B04201DA0F9800E0304604B2BDF89E
:10266000340004280EDAA0B208EB0701CDE900100F
:102670009DF832201E482B460121D0F824C00C982A
:10268000E04724E0BDF83400022812DDBDF8340034
:1026900020280EDAA0B208EB0701CDE900109DF862
:1026A000322013482B460321D0F824C00C98E04771
:1026B0000DE0A0B208EB0701CDE900109DF8322033
:1026C0000B482B460221D0F824C00C98E047052087
:1026D00008F00CFF301B06B2381907B2281985B272
:1026E000002E9FDC00BFBDE8FC075DF814FB000076
:1026F0007C04002010B500210F2010F0E9FE01211C
:10270000342010F0E5FE0F2010F0FBFE02F086FAF8
:1027100010BD000030B52DED0C8B97B000251421B5
:1027200012A8FEF7B4F920210AA8FEF7B0F920217B
:1027300002A8FEF7ACF97848007820B90120764964
:102740000870FFF7D7FFAA208DF8080000208DF849
:1027500009008DF80A000F2010F0CCFE4FF47A70BB
:1027600003230AAA02A900906C4801F066FC0F201E
:1027700010F0C7FE002404E0322017F041F9601C7D
:10278000C4B2052CF8DBF0208DF8080000208DF88D
:1027900009008DF80A008DF80B008DF80C008DF8FB
:1027A0000D008DF80E000F2010F0A4FE4FF47A708B
:1027B00007230AAA02A90090584801F03EFC0F2006
:1027C00010F09FFE002404E0322017F019F9601C7D
:1027D000C4B2052CF8DB9DF82C0000049DF82D10E8
:1027E00040EA01209DF82E1040EA010528461AF023
:1027F000EEFD41EC1D0B9FED4A0B53EC102B1AF034
:102800004DFE41EC1C0B9FED480B53EC102B1AF0C6
:102810001BFC41EC1B0B9FED460B53EC102B1AF0ED
:102820003DFE41EC1A0B9FED440B53EC102B1AF0BC
:1028300075FF41EC190B1AF021FB04461BF058F808
:1028400041EC180B53EC182B3DA112A8FDF798FE94
:1028500012A800909DF82C0000049DF82D4040EA3D
:1028600004209DF82E4040EA04039DF8290000044E
:102870009DF82A4040EA04209DF82B4040EA0402DB
:102880009DF82810304813F009FE00259DF8290016
:1028900000049DF82A1040EA01209DF82B1040EA20
:1028A000010528461AF093FD41EC1D0B9FED1C0B12
:1028B00053EC102B1AF0F2FD41EC1C0B9FED1A0BA0
:1028C00053EC102B1AF0C0FB41EC1B0B9FED1F0BC0
:1028D00053EC102B1AF022FF41EC1A0B9FED1D0B4D
:1028E00053EC102B1AF0DAFD41EC190B9FED1B0B8A
:1028F00053EC102B1AF0D2FD41EC180B53EC182BB3
:102900000FA112A8FDF73CFE12A916A013F0C6FDF8
:1029100017B0BDEC0C8B30BD280500202422002010
:10292000000000000000F03F0000000000007041C7
:102930000000000000405F40000000000000444034
:10294000252E3366000000007CFC01089A999999B5
:102950009999B93F63EE5A423EE8034000000000F7
:102960000000F43F70726573737572653D257320C6
:102970004B50610A00000000014608781038182307
:10298000B0FBF3F20848805CC865032A05D90868E3
:102990006FF30900001D886503E008686FF3090004
:1029A0008865886D7047000095F501080146002094
:1029B0008A6A8B69CBB932B1012A0DD0022A03D0C1
:1029C000032A10D10EE000BFCB6A03F08073B3F18D
:1029D000807F00D1012007E0CB6AB3F1C07F00D136
:1029E000012001E000E000BF34E08B69B3F5005F37
:1029F0001AD132B1012A07D0022A03D0032A11D1F9
:102A00000AE000BF01200EE0CB6A03F08073B3F14F
:102A1000807F00D1012006E0CB6AB3F1C07F00D1F6
:102A2000012000E000BF15E032B1012A05D0022AE2
:102A300004D0032A0CD103E000BF00BF012008E04E
:102A4000CB6A03F08073B3F1807F00D1012000E0F6
:102A500000BF00BF704730B50468246824F48024A8
:102A600005682C60046863608468402C04D10468A5
:102A7000A2600468E16003E00468A1600468E260A9
:102A800030BD10B513F060FC012000F04DFA13F0DA
:102A900085FC10BD10B513F057FC4FF4806000F0BA
:102AA00043FA4FF4006000F03FFA4FF4805000F01A
:102AB0003BFA4FF4005000F037FA4FF4804000F03A
:102AC00033FA4FF4004000F02FFA13F067FC10BD0A
:102AD00010B513F039FC022000F026FA13F05EFC6A
:102AE00010BD10B513F030FC042000F01DFA13F0F7
:102AF00055FC10BD10B513F027FC082000F014FAA7
:102B000013F04CFC10BD10B513F01EFC102000F0AB
:102B10000BFA13F043FC10BD10B513F015FC202088
:102B200000F002FA402000F0FFF9802000F0FCF9EC
:102B30004FF4807000F0F8F94FF4007000F0F4F9F1
:102B400013F02CFC10BD014691F83500022803D08B
:102B50008020486501207047052081F8350008680D
:102B6000006820F001000A6810600020F3E770B5EB
:102B700004460CB9012070BD94F83500022800D13C
:102B8000F9E72068006820F0010021680860002053
:102B90002168086021684860216888602168C860F1
:102BA000216808612120216848612046FFF7E4FE82
:102BB00005460020E06320646064A064E064206552
:102BC00094F85C103F208840A8600020606584F87D
:102BD000350000BF84F8340000BF00BFCBE7000021
:102BE0002DE9F0410446002500F0C8FA074614B963
:102BF0000120BDE8F081606A00B100BF00BF002085
:102C000084F8340000BF022084F835002068006892
:102C100020F00100216808600AE000F0AFFAC01B54
:102C2000052805D920206065032084F83500E0E7F9
:102C30002068006800F001000028EED120680568D7
:102C400021480540D4E901010843E16808432169AE
:102C5000084361690843A1690843E1690843216A9F
:102C600008430543606A042803D1D4E90B010843F3
:102C70000543206805602068456925F00705606AFE
:102C80000543606A04280DD1A06A0543E06A48B193
:102C90002046FFF78BFE28B140206065012084F8B4
:102CA0003500A6E7206845612046FFF765FE064629
:102CB00094F85C103F208840B060002060650120DF
:102CC00084F83500002094E73F8010F02DE9F047AC
:102CD00004460D4616461F464FF00008D4F858909B
:102CE00000BF94F83400012802D10220BDE8F0872B
:102CF000012084F8340000BF94F8350001282BD15E
:102D0000022084F83500002060653B4632462946A3
:102D10002046FFF7A0FE94F85C103F208840C9F8D9
:102D200008002068006840F01600216808602068EC
:102D3000406940F0800021684861206C28B120681B
:102D4000006840F00800216808602068006840F0D2
:102D500001002168086006E000BF002084F834000C
:102D600000BF4FF002084046C0E70000F0B50C4637
:102D700000250022002300219CE0012606FA01F52F
:102D800004EA0502AA427CD14C4E8F0856F827303F
:102D90008E07370F0F26BE403340494EB04201D157
:102DA00000262DE0474EB04201D1012628E0464ED4
:102DB000B04201D1022623E0444EB04201D10326A5
:102DC0001EE0434EB04201D1042619E0414EB0420C
:102DD00001D1052614E0404EB04201D106260FE095
:102DE0003E4EB04201D107260AE03D4EB04201D12D
:102DF000082605E03B4EB04201D1092600E00A2634
:102E00008F073F0FBE409E4222D18E07370F0F26FD
:102E100006FA07F3294E8F0856F827609E43274F7E
:102E20004FEA910C47F82C602F4E366896432E4F90
:102E30003E603E1D366896433F1D3E603E1D36682F
:102E400096433F1D3E603E1D366896433F1D3E60E3
:102E500006684FEA410C032707FA0CF7BE430660E9
:102E6000CF0800F1200656F827604F074FEAD76CCD
:102E70000F2707FA0CF7BE434FEAD10C00F12007E9
:102E800000E016E047F82C6086684FEA410C032703
:102E900007FA0CF7BE438660466801278F40BE43A1
:102EA0004660C6684FEA410C032707FA0CF7BE4399
:102EB000C660491C1029FFF460AFF0BD083801401E
:102EC000000002400004024000080240000C0240E2
:102ED000001002400014024000180240001C024092
:102EE0000020024000240240003C014070B505462D
:102EF000284604F07BFD044604EB4400094901EB3D
:102F00008000406858B104EB44020B4603EB820298
:102F1000906804EB440203EB82025168884700BFCB
:102F200070BD00002C01002010B504460448006864
:102F3000204020B1024804602046FFF7D7FF10BDB3
:102F4000143C0140F8B502460B4600250024002041
:102F50000021E6E0012606FA01F51E6806EA0504EE
:102F6000AC4273D15E68022E02D05E68122E13D17D
:102F7000CF0802F1200656F827004E07F70E0F265D
:102F8000BE40B0434F07FF0E1E69BE403043CF081E
:102F900002F1200646F8270010684F000326BE40C5
:102FA000B0431E7906F003064F00BE403043106068
:102FB0005E68012E08D05E68022E05D05E68112E74
:102FC00002D05E68122E13D190684F000326BE40D7
:102FD000B0434F00DE68BE40304390605068012629
:102FE0008E40B0431E79C6F300168E4030435060C9
:102FF000D0684F000326BE40B0434F009E68BE40DD
:103000003043D0605E6806F08056B6F1805FA8D18C
:1030100000BF00260096454E366846F48046434F72
:103020003E603E46366806F48046009600BF00BF0C
:103030003F4E8F0856F827008E07370F0F26BE40E9
:10304000B0433C4EB24202D100262EE068E03A4E38
:10305000B24201D1012628E0384EB24201D1022607
:1030600023E0374EB24201D103261EE0354EB24274
:1030700001D1042619E0344EB24201D1052614E0F4
:10308000324EB24201D106260FE0314EB24201D19A
:1030900007260AE02F4EB24201D1082605E02E4E47
:1030A000B24201D1092600E00A268F073F0FBE4039
:1030B00030431F4E8F0846F82700284E3068A04343
:1030C0005E6806F48036B6F5803F00D12043234E7B
:1030D0003060361D3068A0435E6806F40036B6F5F1
:1030E000003F00D120431D4E361D3060361D306834
:1030F000A0435E6806F48016B6F5801F00D1204319
:10310000164E08363060361D3068A0435E6806F4FF
:103110000016B6F5001F00D12043104E0C3630606B
:10312000491C1029FFF416AFF8BD000044380240D6
:10313000083801400000024000040240000802403C
:10314000000C02400010024000140240001802402F
:10315000001C02400020024000240240003C0140CC
:10316000024613690B400BB1012000E000207047BC
:103170000AB1816101E00B048361704710B516F05C
:1031800029FE4FF47A714843B0FBF1F010BD000006
:1031900003480068034909780844014908607047FA
:1031A000380400204004002010B50D48006840F4A9
:1031B00000700B4908600846006840F480600860B1
:1031C0000846006840F480700860032000F0A2F810
:1031D000002000F007F800F009F8002010BD000002
:1031E000003C0240014600207047000008B500BFC7
:1031F000002000900E48006840F480400C490860B0
:103200000846006800F48040009000BF00BF00BF87
:1032100000200090081F006840F08050091F0860DF
:103220000846006800F08050009000BF00BF08BD55
:103230004438024010B501460846002817DB00F06C
:103240001F0301229A400B4B440943F8242000BF7E
:1032500000BF00BFBFF34F8F00BF00BF00BF00BF64
:1032600000BF00BFBFF36F8F00BF00BF00BF00BF34
:1032700010BD000080E100E001460846002809DB9F
:1032800000F01F0301229A4043099B0003F1E02351
:10329000C3F8002100BF70472DE9F05F80460D465E
:1032A0001646002703F076FB074639462A46334682
:1032B00001F00700C0F1070ABAF1040F02D94FF07C
:1032C000040A01E0C0F1070AD14600F1040ABAF18C
:1032D000070F02D24FF0000A01E0A0F1030AD44622
:1032E0004FF0010A0AFA09FAAAF1010A0AEA020AE7
:1032F0000AFA0CFA4FF0010B0BFA0CFBABF1010BC5
:103300000BEA030B4AEA0B042146404603F04AFB52
:10331000BDE8F09F00BF00F00702064B19684FF6AA
:10332000FF031940044B0B4343EA0221014B196090
:1033300000BF70470CED00E00000FA0538B500242E
:1033400000BF002000901D48006840F080501B49DD
:1033500008600846006800F08050009000BF00BF81
:10336000012017490864FFF709FF044607E0FFF74B
:1033700005FF001BB0F57A7F01D9032038BD114845
:10338000406800F48030B0F5803FF0D101200C4956
:103390004864FFF7F3FE044607E0FFF7EFFE001B6B
:1033A000B0F57A7F01D90320E8E70648406800F4C9
:1033B0000030B0F5003FF0D10020DFE74038024098
:1033C00000000E420070004070B504460D460CB976
:1033D000012070BD5848006800F00F00A84209D2D3
:1033E00055490D700846006800F00F00A84201D052
:1033F0000120EEE7207800F0020002281DD120789D
:1034000000F00400042805D14C48006840F4E05066
:103410004A490860207800F00800082805D147488C
:10342000006840F46040454908604448006820F066
:10343000F000A168084341490860207800F00100CD
:10344000A8B36068012807D13C4808380068C0F379
:103450004040B8B90120BCE76068022802D060682B
:10346000032807D1354808380068C0F3406048B9E0
:103470000120AEE7314808380068C0F3400008B9C1
:103480000120A6E72D48006820F00300616808438A
:103490002A490860FFF772FE064609E0FFF76EFE54
:1034A000801B41F28831884202D9032091E707E06E
:1034B0002248006800F00C006168B0EB810FEDD18C
:1034C0001D48006800F00F00A84209D91A490D7084
:1034D0000846006800F00F00A84201D0012078E7FC
:1034E000207800F00400042807D11448006820F474
:1034F000E050E168084311490860207800F00800B6
:10350000082808D10D48006820F46040216940EA8D
:10351000C1000A49086000F03DF808490968C1F394
:103520000311074A515CC840064908600020FFF7B4
:1035300059FE00204DE70000003C024008380240E0
:103540007DF5010834040020014800687047000040
:103550003404002000B5FFF7F7FF04490968C1F300
:103560008221034A515CC84000BD00000838024077
:103570008DF5010800B5FFF7E7FF04490968C1F3BD
:103580004231034A515CC84000BD00000838024087
:103590008DF501082DE9F047002400250026A146FD
:1035A0002548006800F00C0020B1042805D0082848
:1035B0003AD105E0DFF8849039E0DFF8849036E016
:1035C0001D48001F006800F03F041B48001F0068F2
:1035D00000F4800078B11A481749091F0968C1F33F
:1035E0008811A0FB01700146224600233846FCF7F3
:1035F0002CFF05460EE011480F49091F0968C1F369
:103600008811A0FB01700146224600233846FCF7D2
:103610001CFF05460848001F0068C0F30140401C1D
:103620004600B5FBF6F902E0DFF8109000BF00BFDE
:103630004846BDE8F0870000083802400024F40046
:1036400000127A00F8B504460CB90120F8BD2078C4
:1036500000F00100002874D0F948006800F00C0068
:1036600004280DD0F648006800F00C00082813D19B
:10367000F348001F006800F48000B0F5800F0BD104
:10368000EF4808380068C0F34040002859D060680F
:10369000002856D10120D9E700BF6068B0F5803F0F
:1036A00008D1E7480838006840F48030E449083918
:1036B00008601EE06068B0F5A02F0DD1E048083822
:1036C000006840F48020DE49083908600846006838
:1036D00040F4803008600CE0D9480838006820F4D5
:1036E0008030D749083908600846006820F48020F7
:1036F000086000BF606890B1FFF740FD054606E036
:10370000FFF73CFD401B642801D903209EE7CC480D
:1037100008380068C0F340400028F1D011E0FFF7FE
:103720002DFD054606E0FFF729FD401B642801D961
:1037300003208BE7C24808380068C0F340400028E7
:10374000F1D1207800F0020002285FD1BC48006867
:1037500000F00C0058B1BA48006800F00C000828CE
:103760001CD1B748001F006800F48000B0B9B4480D
:1037700008380068C0F3400020B1E068012801D09B
:10378000012063E7AE480838006820F0F80021699E
:1037900040EAC100AA490839086037E0E06800B390
:1037A0000120A8490860FFF7E9FC054606E0FFF79D
:1037B000E5FC401B022801D9032047E7A048083850
:1037C0000068C0F340000028F1D09D480838006828
:1037D00020F0F800216940EAC100994908390860E1
:1037E00014E0002097490860FFF7C8FC054606E092
:1037F000FFF7C4FC401B022801D9032026E79048AC
:1038000008380068C0F340000028F1D1207800F0AB
:10381000080008282CD16069A8B101208A490860F5
:10382000FFF7ACFC054606E0FFF7A8FC401B0228AA
:1038300001D903200AE782486C300068C0F34000D9
:103840000028F1D014E000207F490860FFF796FCC3
:10385000054606E0FFF792FC401B022801D9032031
:10386000F4E677486C300068C0F340000028F1D1DE
:10387000207800F00400042870D100267048383009
:10388000006800F0805090B900BF002000906C48A4
:103890003830006840F08050694938310860084687
:1038A000006800F08050009000BF00BF012667480C
:1038B000006800F48070B0B96448006840F480701B
:1038C00062490860FFF75AFC054606E0FFF756FC20
:1038D000401B022801D90320B8E65C48006800F4C8
:1038E00080700028F2D000BFA068012808D1544899
:1038F0006830006840F001005149683108601DE0FF
:10390000A06805280DD14E486830006840F00400DA
:103910004B49683108600846006840F001000860C3
:103920000CE047486830006820F0010044496831E5
:1039300008600846006820F00400086000BFA06826
:10394000A8B1FFF71BFC054609E0FFF717FC401B79
:1039500041F28831884202D9032077E626E03848D0
:1039600068300068C0F340000028EED013E0FFF795
:1039700005FC054608E0FFF701FC401B41F28831D9
:10398000884201D9032061E62D4868300068C0F301
:1039900040000028EFD1012E07D1294838300068B7
:1039A00020F0805026493831086000BFA069B8B3C4
:1039B0002348006800F00C0008285ED0A0690228A7
:1039C00046D100201F490866FFF7D8FB054606E0F0
:1039D000FFF7D4FB401B022801D9032036E6184824
:1039E00008380068C0F340600028F1D1D4E907012D
:1039F0000843616A40EA81110122A06AC2EB5000CB
:103A000041EA00412C20005D41EA00600C49091F99
:103A1000086001200B490866FFF7B0FB054607E088
:103A20002DE0FFF7ABFB401B022801D903200DE678
:103A3000034808380068C0F340600028F1D01EE059
:103A40000838024000004742800E474200700040A4
:103A500000200C490866FFF791FB054606E0FFF7DA
:103A60008DFB401B022801D90320EFE506480068C2
:103A7000C0F340600028F2D101E00120E6E500201B
:103A8000E4E500000000474200380240704701466C
:103A900091F85100704710B504460CB9012010BDD3
:103AA000606A00B900BF0021A16294F8510028B9F2
:103AB000002084F85000204600F034F8022084F8FA
:103AC00051002068006820F0400021680860D4E9B7
:103AD00001010843E168084321690843616908431B
:103AE000218B01F400710843E1690843216A08430E
:103AF000A16A0843216808600421A06901EA104016
:103B0000616A0843216848602068C06920F4006049
:103B10002168C86100206065012084F85100002000
:103B2000BDE7000010B586B00446142101A8FCF7DB
:103B3000AEFF3649206888422FD100BF0020009098
:103B40003348006840F40040314908600846006886
:103B500000F40040009000BF00BF00BF00200090B4
:103B60002B481038006840F00200294910390860DD
:103B70000846006800F00200009000BF00BF382037
:103B80000190022002900020039003200490062060
:103B9000059001A91F48FFF7D5F91F492068884201
:103BA00031D100BF002000901948001D006840F48A
:103BB00000501749091D08600846006800F40050CD
:103BC000009000BF00BF00BF0020009010481038D8
:103BD000006840F010000E4910390860084600687F
:103BE00000F01000009000BF00BF64200190022090
:103BF000029000200390032004900520059001A965
:103C00000648FFF79FF906B010BD0000003C0040D9
:103C100040380240000402400034014000100240DD
:103C20002DE9F8430446884616461D464FF0000924
:103C30006068B0F5827F0DD1A06858B9042084F87F
:103C400051003346424641462046009500F0F5F9C2
:103C5000BDE8F88300BF94F85000012801D102208C
:103C6000F6E7012084F8500000BFFFF787FA074607
:103C700094F85100012802D04FF0020978E0B8F121
:103C8000000F00D016B94FF0010971E0042084F84C
:103C9000510000206065C4F83880A687E68720635D
:103CA000A086E08620646064A068B0F5004F05D16E
:103CB0002068006820F4804021680860206800685F
:103CC00000F04000402805D02068006840F0400027
:103CD00021680860E068F8B91AE02068806800F0A0
:103CE000010050B12068007BA16B0870A06B401CE4
:103CF000A063E08F401EE0870AE0FFF73FFAC01B99
:103D0000A84201D3681C00B915B94FF003092FE090
:103D1000E08F0028E1D11EE01AE02068806800F002
:103D2000010050B12068C068A16B0880A06B801CA6
:103D3000A063E08F401EE0870AE0FFF71FFAC01B78
:103D4000A84201D3681C00B915B94FF003090FE070
:103D5000E08F0028E1D13A462946204601F082FE54
:103D600008B120206065606D08B14FF0010900BF07
:103D7000012084F8510000BF002084F8500000BFEB
:103D8000484665E72DE9F04104460E4615460027F2
:103D9000A06870B96068B0F5827F0AD1042084F809
:103DA00051002B4632463146204600F05BFABDE812
:103DB000F08100BF94F85000012801D10220F6E7FD
:103DC000012084F8500000BF94F85100012801D070
:103DD000022751E006B10DB901274DE0042084F817
:103DE000510000206065A663A587E58720646064B4
:103DF000A086E086A068B0F5004F05D12068006875
:103E000020F48040216808601F48E16C08641F4866
:103E1000E16CC8631E48E16CC8640020E16C086571
:103E2000E38FD4F800C00CF10C01A26BE06CFEF73C
:103E30004DFF40B1606D40F010006065012701202A
:103E400084F8510018E02068006800F04000402825
:103E500005D02068006840F04000216808602068B4
:103E6000406840F02000216848602068406840F0C9
:103E700001002168486000BF00BF002084F85000A6
:103E800000BF384693E70000F15800081B590008AE
:103E9000C9580008704770472DE9F84F0446884616
:103EA00016461D464FF0000A00BF94F85000012846
:103EB00002D10220BDE8F88F012084F8500000BF35
:103EC000FFF75CF90746B14694F85100012802D08B
:103ED0004FF0020AA7E0B8F1000F00D016B94FF07A
:103EE000010AA0E0032084F8510000206065C4F8B6
:103EF0003080A686E686A063A087E08760642064A1
:103F0000A068B0F5004F05D12068006840F48040FB
:103F1000216808602068006800F04000402805D053
:103F20002068006840F0400021680860E068B0F553
:103F3000006F2FD1606810B1B9F1010F09D1206B6A
:103F400000882168C860206B801C2063E08E401EC2
:103F5000E0861BE02068806800F0020002280AD199
:103F6000206B00882168C860206B801C2063E08E75
:103F7000401EE0860AE0FFF701F9C01BA84201D30A
:103F8000681C00B915B94FF0030A4CE0E08E002818
:103F9000E0D12EE0606810B1B9F1010F09D1206BBA
:103FA000007821680873206B401C2063E08E401E5F
:103FB000E0861BE02068806800F0020002280AD139
:103FC000206B007821680873206B401C2063E08E12
:103FD000401EE0860AE0FFF7D1F8C01BA84201D3DB
:103FE000681C00B915B94FF0030A1CE0E08E0028E8
:103FF000E0D13A462946204601F07EFD08B1202056
:104000006065A06850B900BF002000902068C068BB
:10401000009020688068009000BF00BF606D08B10C
:104020004FF0010A00BF012084F8510000BF0020BA
:1040300084F8500000BF50463CE72DE9FF5F04467E
:10404000884691461D460E9E012002900020019058
:1040500000BF94F85000012803D1022004B0BDE84D
:10406000F09F012084F8500000BFFFF787F8074653
:1040700094F851B060680390AA46BBF1010F0BD0D1
:104080000398B0F5827F04D1A06810B9BBF1040F8A
:1040900002D002200190DBE0B8F1000F03D0B9F1AB
:1040A000000F00D015B901200190D1E094F8510023
:1040B000042802D0052084F8510000206065C4F86F
:1040C0003890E587A587C4F83080E586A58620640A
:1040D00060642068006800F04000402805D0206837
:1040E000006840F0400021680860E068B0F5006FAB
:1040F0004AD1606810B1BAF1010F09D1206B008874
:104100002168C860206B801C2063E08E401EE08622
:1041100033E02068806800F00200022810D1E08EB1
:1041200070B1029801280BD1206B00882168C8600B
:10413000206B801C2063E08E401EE08600200290F1
:104140002068806800F0010068B1E08F58B12068F5
:10415000C068A16B0880A06B801CA063E08F401E2C
:10416000E08701200290FFF709F8C01BB04204D39A
:10417000701C10B1032001906AE0E08E0028C8D1C5
:10418000E08F0028C5D14AE0606810B1BAF1010F94
:1041900009D1206B007821680873206B401C2063D4
:1041A000E08E401EE08634E02068806800F0020067
:1041B000022810D1E08E70B1029801280BD1206B3B
:1041C000007821680873206B401C2063E08E401E3D
:1041D000E086002002902068806800F0010068B14D
:1041E000E08F58B12068C068A16B0870A06B401CBC
:1041F000A063E08F401EE08701200290FEF7BEFF23
:10420000C01BB04201D3701C00B916B90320019045
:104210001EE0E08E0028C7D1E08F0028C4D13A46C6
:104220003146204601F068FC20B101200190202099
:1042300060650DE0A06850B900BF002000902068C4
:10424000C068009020688068009000BF00BF00BF79
:10425000012084F8510000BF002084F8500000BF06
:104260000198FBE62DE9F04704460E4617461D4629
:104270004FF0000A00BF94F85000012802D102203C
:10428000BDE8F087012084F8500000BF94F8518009
:10429000D4F80490B8F1010F0AD0B9F5827F04D1A7
:1042A000A06810B9B8F1040F02D04FF0020A7DE007
:1042B0000EB107B115B94FF0010A77E094F851003B
:1042C000042802D0052084F8510000206065266390
:1042D000A586E586A763A587E5872064606494F8D2
:1042E0005100042806D13548E16C08643448E16C7B
:1042F000C86305E03348E16C08643348E16CC86387
:104300003248E16CC8640020E16C0865E38FD4F8A2
:1043100000C00CF10C01A26BE06CFEF7D7FC48B1B9
:10432000606D40F0100060654FF0010A012084F8D4
:1043300051003BE02068406840F00100216848607F
:104340000020A16C0864A16CC863A16CC864A16C56
:104350000865E38ED4F800C00CF10C02216BA06C50
:10436000FEF7B4FC48B1606D40F0100060654FF09E
:10437000010A012084F8510018E02068006800F06C
:104380004000402805D02068006840F040002168C7
:1043900008602068406840F020002168486020687C
:1043A000406840F002002168486000BF00BF002064
:1043B00084F8500000BF504662E70000F158000842
:1043C0001B5900080D590008FD590008C95800087C
:1043D0002DE9F04104460E461546002700BF94F82B
:1043E0005000012802D10220BDE8F081012084F8AC
:1043F000500000BF94F85100012801D0022752E07C
:1044000006B10DB901274EE0032084F851000020C9
:1044100060652663A586E586A06360642064A08746
:10442000E087A068B0F5004F05D12068006840F42F
:104430008040216808601F48A16C08641E48A16C78
:10444000C8631E48A16CC8640020A16C0865E38E97
:10445000D4F800C00CF10C02216BA06CFEF736FC06
:1044600040B1606D40F0100060650127012084F8C4
:10447000510018E02068006800F04000402805D096
:104480002068006840F040002168086020684068AB
:1044900040F02000216848602068406840F0020039
:1044A0002168486000BF00BF002084F8500000BFB2
:1044B000384699E7FF5800087D590008C958000898
:1044C0007047704770477047042808D14FF0E021CB
:1044D000096941F004014FF0E022116107E04FF05B
:1044E000E021096921F004014FF0E02211617047D9
:1044F00070B504462546681EB0F1807F01D30120C7
:104500000FE0681E4FF0E02148610F214FF0FF30AF
:1045100002F048FA00204FF0E0218861072008618E
:10452000002070BD70B504462CB94FF45372034996
:1045300003A010F063F8254670BD000055E801089F
:10454000687561727420213D204E554C4C0000006E
:104550002DE9F0470446206805682068C668206891
:1045600047694FF00008C14605F00F08B8F1000F89
:104570000AD105F0200038B106F0200020B1204615
:1045800001F034FFBDE8F087B8F1000F6ED007F0FE
:10459000010018B906F49070002867D005F00100FA
:1045A00030B106F4807018B1E06B40F00100E063B8
:1045B00005F0040030B107F0010018B1E06B40F0E5
:1045C0000200E06305F0020030B107F0010018B10D
:1045D000E06B40F00400E06305F0080030B107F044
:1045E000010018B1E06B40F00800E063E06B70B3CD
:1045F00005F0200028B106F0200010B1204601F09F
:10460000F5FE20684069C0F38019E06B00F00800F7
:1046100010B9B9F1000F23D0204601F0BDFE20688B
:10462000406900F04000402816D12068406920F021
:10463000400021684861606B50B11748616B0865A4
:10464000606BFEF780FA10B1606B016D88470CE07B
:104650002046FFF767FF08E02046FFF763FF04E00E
:104660002046FFF75FFF0020E0638BE705F0800046
:1046700030B106F0800018B1204602F0BFF881E7A3
:1046800005F0400030B106F0400018B1204601F0BE
:1046900093FE77E700BF75E79D62000810B50446FA
:1046A0000CB9012010BDA06900B100E000BF94F872
:1046B000390028B9002084F83800204600F028F896
:1046C000242084F839002068C06820F40050216854
:1046D000C860204601F0DEFE2068006920F49040AA
:1046E000216808612068406920F02A00216848613B
:1046F0002068C06840F400502168C8600020E06372
:10470000202084F8390084F83A000020CAE700002D
:1047100010B586B00446142101A8FCF7B8F9A749E2
:104720002068884255D100BF00200090A44800684E
:1047300040F48010A24908600846006800F4801028
:10474000009000BF00BF00BF002000909C481038C0
:10475000006840F004009A49103908600846006873
:1047600000F00400009000BF00BF00BF00200090D8
:104770000846006840F0080008600846006800F03D
:104780000800009000BF00BF881401900220029032
:1047900001200390032004900820059001A9894876
:1047A000FEF7D0FB0420019002200290012003902C
:1047B000032004900820059001A98348FEF7C2FB5E
:1047C000002211463520FEF767FD3520FEF754FD27
:1047D000F1E07E492068884233D100BF002000907C
:1047E0007748001D006840F010007549091D0860F9
:1047F0000846006800F01000009000BF00BF00BF36
:10480000002000906E481038006840F001006C49AC
:10481000103908600846006800F00100009000BFF1
:1048200000BF4FF4C060019002200290012003906D
:10483000032004900720059001A96548FEF782FB3C
:10484000B9E064492068884238D100BF0020009058
:104850005B48006840F40030594908600846006829
:1048600000F40030009000BF00BF00BF00200090A7
:1048700053481038006840F008005149103908606A
:104880000846006800F00800009000BF00BF6020EC
:104890000190022002900120039003200490072041
:1048A000059001A94848FEF74DFB0022114626203D
:1048B000FEF7F2FC2620FEF7DFFC7CE0464920688C
:1048C000884239D100BF002000903D48006840F484
:1048D00080203B4908600846006800F48020009072
:1048E00000BF00BF00BF00200090354810380068AE
:1048F00040F004003249103908600846006800F0B2
:104900000400009000BF00BF4FF4406001900220FF
:10491000029001200390032004900720059001A934
:104920002848FEF70FFB002211462720FEF7B4FCB3
:104930002720FEF7A1FC3EE02849206888423AD1B2
:1049400000BF002000901E48001D006840F02000BD
:104950001B49091D08600846006800F0200000900F
:1049600000BF00BF00BF002000901548103800684D
:1049700040F040001249103908600846006800F015
:104980004000009000BF00BF4FF48440019002201F
:10499000029001200390032004900820059001A9B3
:1049A0000F48FEF7CFFA002211464720FEF774FCAD
:1049B0004720FEF761FC06B010BD0000005000402B
:1049C0004038024000080240000C02400010014044
:1049D0000000024000440040004800400014014034
:1049E0000018024077B581B00446154694F83A00A5
:1049F000202850D1029800B115B9012004B070BD33
:104A000000BF94F83800012801D10220F6E7012008
:104A100084F8380000BF0298A062A5850020E063FA
:104A2000222084F83A001D48616BC8631C48616B02
:104A300008641C48616BC8640020616B086502AEA5
:104A400032682368191D2B46606BFEF73FF900BFE3
:104A50000020009020680068009020684068009066
:104A600000BF00BF00BF002084F8380000BF2068EE
:104A7000C06840F480702168C8602068406940F0D8
:104A80000100216848612068406940F040002168C9
:104A900048610020B2E70220B0E70000016300088F
:104AA00047630008B162000870B504462CB94FF4A2
:104AB0005772054905A00FF0A1FD254605F5867042
:104AC00006F0B0FC70BD00006CE80108687561720A
:104AD0007420213D204E554C4C00000070B504461A
:104AE0002CB940F26B32054905A00FF087FD254631
:104AF00005F5867006F096FC70BD000084E801089C
:104B0000687561727420213D204E554C4C000000A8
:104B1000F7B50446154694F8390020283DD1019890
:104B200000B10DB90120FEBD00BF94F83800012886
:104B300001D10220F7E7012084F8380000BF019876
:104B40002062A584E5840020E063212084F83900F8
:104B50001348216BC8631348216B08641248216B0A
:104B6000C8640020216B086501AE23681A1D3168F6
:104B70002B46206BFEF7AAF86FF040002168086012
:104B800000BF002084F8380000BF2068406940F072
:104B90008000216848610020C5E70220C3E70000CB
:104BA000556300088B630008B162000870B50446C5
:104BB0002CB940F27232054905A00FF01FFD2546C1
:104BC000042105F5867010F045FF70BDA0E80108CE
:104BD000687561727420213D204E554C4C000000D8
:104BE000704770B50446216D01F158004FF0FF3158
:104BF00013F02AF8054675B9206DC06FA0420AD09F
:104C0000206D406D04F1540102682046904705462E
:104C10000DB9206DC467284670BD000010B50F485F
:104C20000F4908604FF48270486000210C48816091
:104C3000C160016101214161490281613021C1618D
:104C400000210162416281620A21C162FEF723FFF5
:104C500018B1C92103A001F083FE10BD003C004043
:104C6000242200206170706C69636174696F6E73D7
:104C70005C6D706D20617070735C444C4C522D4CB7
:104C80003130442E6300000000BF0A48006810F86D
:104C9000080C0849096811F8041C0844054909680A
:104CA00001F8080C03480068001F0249086000BFB3
:104CB000704700002404002000BF0A48006850F834
:104CC000080C0849096851F8041C0844054909689A
:104CD00041F8080C03480068001F0249086000BF43
:104CE000704700002404002000BF0A48006830F824
:104CF000080C0849096831F8041C084400B2054949
:104D0000096821F8080C03480068001F0149086081
:104D100000BF70472404002000BF0A48006810F854
:104D2000080C0849096811F8041C0840054909687D
:104D300001F8080C03480068001F0249086000BF22
:104D4000704700002404002000BF0A48006850F8A3
:104D5000080C0849096851F8041C0840054909680D
:104D600041F8080C03480068001F0249086000BFB2
:104D7000704700002404002000BF0A48006830F992
:104D8000080C0849096831F9041C084005490968FC
:104D900021F8080C03480068001F0249086000BFA2
:104DA00070470000240400200448006810F8040C38
:104DB000C0430249096801F8040C7047240400202C
:104DC0000448006850F8040CC0430249096841F8DF
:104DD000040C7047240400200448006830F9040CD7
:104DE000C0430249096821F8040C704724040020DC
:104DF00010B5A4B0DF48006800781390DD48006863
:104E0000401CDC49086000201290DB480068001F4D
:104E1000D949086011E0D848006802681398401E1C
:104E20001299401A14A941F82020D3480068001FA5
:104E3000D14908601298401C1290DDE912018842A5
:104E4000E9D3CD48006800681190139811286ED2FC
:104E5000DFE800F0090E141D293747596E849CB60F
:104E6000D2F4F2F1F000002011998847109074E11B
:104E700014980F901199884710906EE115980F9033
:104E800014980E90119A0F999047109065E116981A
:104E90000F9015980E9014980D90119BDDE90E124D
:104EA0009847109059E117980F9016980E90159802
:104EB0000D9014980C90119C0DA90EC9A04710904C
:104EC0004BE11898009017980F9016980E9015982F
:104ED0000D9014980C90119C0DA90EC9A04710902C
:104EE0003BE1DDE91801CDE9000117980F90169814
:104EF0000E9015980D9014980C90119C0DA90EC948
:104F0000A047109029E1DDE919211898CDE9012188
:104F1000009017980F9016980E9015980D90149871
:104F20000C90119C0DA90EC9A047109015E111E13C
:104F3000DDE9193218991B98CDE9013200910390EF
:104F400017980F9016980E9015980D9014980C9035
:104F5000119C0DA90EC9A0471090FEE0DDE91923B0
:104F6000DDE91B10CDE90123CDE90310189800906D
:104F700017980F9016980E9015980D9014980C9005
:104F8000119C0DA90EC9A0471090E6E0DDE91A2397
:104F9000DDE91C10CDE90223CDE90410DDE918019B
:104FA000CDE9000117980F9016980E9015980D9066
:104FB00014980C90119C0DA90EC9A0471090CCE03C
:104FC000DDE91C321B991E98CDE90432039106904D
:104FD000DDE919211898CDE90121009017980F906B
:104FE00016980E9015980D9014980C90119C0DA980
:104FF0000EC9A0471090B0E0DDE91C23DDE91E10CA
:10500000CDE90423CDE90610DDE9193218991B9882
:10501000CDE901320091039017980F9016980E90E9
:1050200015980D9014980C90119C0DA90EC9A047CD
:10503000109092E068E043E020E0FFE7DDE91E32F7
:105040001D992098CDE9063205910890DDE91923D4
:10505000DDE91B01CDE90123CDE90301189800909A
:1050600017980F9016980E9015980D9014980C9014
:10507000119C0DA90EC9A04710906EE0DDE91E132A
:10508000DDE92002CDE90613CDE90802DDE91A23A6
:10509000DDE91C01CDE90223CDE90401DDE91801B8
:1050A000CDE9000117980F9016980E9015980D9065
:1050B00014980C90119C0DA90EC9A04710904CE0BB
:1050C000DDE92031229A1F98CDE908310A92079034
:1050D000DDE91B23DDE91D01CDE90323CDE9050150
:1050E000DDE919211898CDE90121009017980F905A
:1050F00016980E9015980D9014980C90119C0DA96F
:105100000EC9A047109028E0DDE9213220992398AC
:10511000CDE9093208910B90DDE91D321C991F98E9
:10512000CDE9053204910790DDE91823DDE91A1075
:10513000CDE90023CDE9021017980F9016980E9034
:1051400015980D9014980C90119C0DA90EC9A047AC
:10515000109002E00020109000BF00BF0649109898
:105160000968086004480068001D0349086024B00D
:1051700010BD0000280400202404002000BF0A48BD
:10518000006810F8080C0849096811F8041C90FB25
:10519000F1F00549096801F8080C03480068001F90
:1051A0000149086000BF70472404002000BF0A487E
:1051B000006850F8080C0849096851F8041C90FB75
:1051C000F1F00549096841F8080C03480068001F20
:1051D0000149086000BF70472404002000BF0B484D
:1051E000006830F9080C0949096831F9041C90FB82
:1051F000F1F000B20549096821F8080C034800687D
:10520000001F0249086000BF70470000240400200E
:10521000084800680078084909680870064800686E
:10522000001D0549086003480068401C01490860EA
:105230007047000028040020240400200F48006864
:1052400000780E490968497840EA01200B4909684D
:10525000897840EA014009490968C97840EA016053
:1052600007490968086006480068001D044908608D
:1052700002480068001D01490860704728040020AA
:10528000240400201049096809780F4A12685278EE
:1052900041EA02210C4A1268927841EA02410A4A24
:1052A0001268D27841EA02600178084A12681170E7
:1052B00006490968091D054A116003490968091D65
:1052C000014A1160704700002804002024040020D7
:1052D0000449096851F8040C0178024A126802F87E
:1052E000041C7047240400201049096809780F4AFB
:1052F0001268527841EA02210C4A1268927841EA17
:1053000002410A4A1268D27841EA0260084A0168FA
:105310001268116006490968091D054A11600349B0
:105320000968091D014A1160704700002804002027
:10533000240400200449096851F8040C024A016859
:10534000126842F8041C70472404002010490968C0
:1053500009780F4A1268527841EA02210C4A126811
:10536000927841EA02410A4A1268D27841EA026020
:105370000188084A1268118006490968091D054A12
:10538000116003490968091D014A11607047000056
:1053900028040020240400200449096851F8040C62
:1053A0000188024A126822F8041C70472404002075
:1053B0000B48006800780A490968497840EA0120EA
:1053C00000B208490968088006480068001D0549C0
:1053D000086003480068801C0149086070470000AD
:1053E000280400202404002000BF0B48006810F8A7
:1053F000080C0949096811F8041C90FBF1F201FB43
:1054000012000549096801F8080C03480068001FEC
:105410000149086000BF70472404002000BF0B480A
:10542000006850F8080C0949096851F8041C90FB01
:10543000F1F201FB12000549096841F8080C034824
:105440000068001F0149086000BF70472404002065
:1054500000BF0B48006830F9080C0949096831F9A8
:10546000041C90FBF1F201FB12000549096821F8C8
:10547000080C03480068001F0149086000BF70471E
:105480002404002000BF0A48006810F8080C0849EE
:10549000096811F8041C10FB01F00549096801F8BE
:1054A000080C03480068001F0149086000BF7047EE
:1054B0002404002000BF0A48006850F8080C08497E
:1054C000096851F8041C48430549096841F8080C6B
:1054D00003480068001F0249086000BF70470000D1
:1054E0002404002000BF0B48006830F8080C09496C
:1054F000096831F8041C10FB01F000B20549096885
:1055000021F8080C03480068001F0249086000BF2A
:1055100070470000240400207047000000BF0A48C4
:10552000006810F8080C0849096811F8041C0843C1
:105530000549096801F8080C03480068001F024982
:10554000086000BF704700002404002000BF0A4824
:10555000006850F8080C0849096851F8041C084311
:105560000549096841F8080C03480068001F024912
:10557000086000BF704700002404002000BF0A48F4
:10558000006830F9080C0849096831F9041C08431F
:105590000549096821F8080C03480068001F024902
:1055A000086000BF70470000240400200248006823
:1055B000001F0149086070472404002000BF0A480A
:1055C000006810F8080C0849096811F8041C8840A4
:1055D0000549096801F8080C03480068001F0249E2
:1055E000086000BF704700002404002000BF0A4884
:1055F000006850F8080C0849096811F8041C884034
:105600000549096841F8080C03480068001F024971
:10561000086000BF704700002404002000BF0A4853
:10562000006830F8080C0849096811F8041C884023
:1056300000B20549096821F8080C03480068001FFA
:105640000149086000BF70472404002000BF0A48D9
:10565000006810F8080C0849096811F8041C084192
:105660000549096801F8080C03480068001F024951
:10567000086000BF704700002404002000BF0A48F3
:10568000006850F8080C0849096811F8041C084122
:105690000549096841F8080C03480068001F0249E1
:1056A000086000BF704700002404002000BF0A48C3
:1056B000006830F9080C0849096811F8041C084111
:1056C0000549096821F8080C03480068001F0249D1
:1056D000086000BF704700002404002007480068ED
:1056E00010F8040C0549096851F8081C08700348B3
:1056F0000068001F01490860704700002404002072
:105700000748006850F8040C0549096851F8081C5E
:10571000086003480068001F0149086070470000E6
:10572000240400200748006830F8040C0549096883
:1057300051F8081C088003480068001F01490860F0
:10574000704700002404002000BF0A48006810F8D9
:10575000080C0849096811F8041C401A0549096831
:1057600001F8080C03480068001F0249086000BFE8
:10577000704700002404002000BF0A48006850F869
:10578000080C0849096851F8041C401A05490968C1
:1057900041F8080C03480068001F0249086000BF78
:1057A000704700002404002000BF0A48006830F859
:1057B000080C0849096831F8041C401A00B2054970
:1057C000096821F8080C03480068001F01490860B7
:1057D00000BF70472404002000BF0A48006810F88A
:1057E000080C0849096811F8041C48400549096873
:1057F00001F8080C03480068001F0249086000BF58
:10580000704700002404002000BF0A48006850F8D8
:10581000080C0849096851F8041C48400549096802
:1058200041F8080C03480068001F0249086000BFE7
:10583000704700002404002000BF0A48006830F9C7
:10584000080C0849096831F9041C484005490968F1
:1058500021F8080C03480068001F0249086000BFD7
:105860007047000024040020F0B587B004460D46C0
:10587000002C22DDC92C20DA402104F13700800100
:105880000F4BCDE90551049010330FCB8DE80F007D
:105890000C4887680A480FC8B847002607E0A85D8B
:1058A0007F2802DD0020A85503E0701CC6B2402E00
:1058B000F5DB00BF002007B0F0BD0420FBE70000CF
:1058C000F40400204404002070B50546AC6B206849
:1058D000406820F0030021684860606D40F01000CF
:1058E0006065012084F851002046FEF7CFF870BDB6
:1058F00070B50446A56B2846FEF7CDFA70BD70B5AD
:105900000446A56B2846FEF7DCFD70BD70B5044665
:10591000A56B2846FEF7D7FD70BD70B50546AC6B8C
:10592000FDF72CFC06462868006800F48070B0F58E
:10593000807F1ED02068406820F0200021684860E9
:105940002068406820F003002168486032466421E6
:10595000204600F087F808B1202060650020E0872D
:10596000012084F85100606D18B12046FEF78EF8D2
:1059700070BD2046FEF78EFA00BFF9E7F8B5054680
:10598000AC6BFDF7FBFB06462868006800F48070EE
:10599000B0F5807F2DD02068406820F0200021687D
:1059A00048602068406820F0020021684860324664
:1059B0006421204600F0A0F818B1606D40F020008E
:1059C0006065A06850B900BF002000902068C068E2
:1059D000009020688068009000BF00BF0020E08633
:1059E000012084F85100606D18B12046FEF74EF892
:1059F000F8BD2046FEF764FD00BFF9E770B5054627
:105A0000AC6BFDF7BBFB06462868006800F48070AD
:105A1000B0F5807F21D02068406820F02000216808
:105A2000486032466421204600F066F818B1606D87
:105A300040F0200060652068406820F00300216885
:105A400048600020E086E087012084F85100606D06
:105A500018B12046FEF71AF870BD2046FEF732FD59
:105A600000BFF9E7F8B504460E4615466068B0F584
:105A7000827F0DD1A068B0F5004F03D0A068B0F5CB
:105A8000806F05D12068006820F040002168086020
:105A90006068B0F5827F1FD1A068B0F5806F0DD02F
:105AA0003346002280212046009500F05BF808B3C1
:105AB000606D40F0200060650320F8BD3346002291
:105AC00001212046009500F04DF898B1606D40F03E
:105AD000200060650320F0E73346002201212046C4
